:070C170000000000000000D6
:0C0BEA00042100000000042500000000B1
:100BB700E4FFFE53E8F043B38053B47FF5F643F602
:100BC7000143E101C2EFD2EE30EFFDAFC37E00EF8C
:100BD700C4F8540FC868FFEEC454F048FEADC2EF26
:020BE7004DFFC0
:010BE90022E9
:100B8100E4FFFE53E8F043E80143AC0153ADFEF549
:100B9100F643F60243E101C2EFD2EE30EFFDAFC3FF
:100BA1007E00EFC4F8540FC868FFEEC454F048FE4D
:050BB100ADC2EF4DFF95
:010BB600221C
:080804008F138B148A1589166D
:10080C00E4F518F5197F55120BFF74552519F519D8
:10081C007F55120BFF74552519F519E5172402FFA6
:10082C00120BFFE51724022519F519AF13120BFF54
:10083C00E5132519F519E4F518E518C39517502A91
:10084C00AB14AA15A916851882758300120112FF24
:10085C00120BFFAB14AA15A916851882758300120A
:0F086C0001122519F519051880CFAF19020BFFDE
:1006ED00E4F512EF14B40A004003020782900708E4
:1006FD0075F003A4C58325F0C58373020726020791
:10070D002B02073002073502073A02073F02074462
:10071D0002074902074E020753751201802B75120D
:10072D00058026751209802175120D801C75121118
:10073D0080177512158012751219800D75121D8096
:10074D00087512218003751225ED601B24FE600BC8
:10075D0014600E2402701E0512800C051205128005
:10076D000674032512F5127B007A007912751701B4
:05077D007F01120804D9
:010782002254
:0603AE008B0F8A1089117B
:1003B400120BB7C3EF9482EE6480948F4015D3EF91
:1003C400947CEE64809490500AAB0FAA10A911E4B7
:1003D400020521C3EF94F7EE6480948D4016D3EFA9
:1003E40094F1EE6480948E500BAB0FAA10A9117493
:1003F40001020521C3EF940BEE648094894016D367
:10040400EF9405EE6480948A500BAB0FAA10A911E7
:100414007402020521C3EF9439EE6480948340167C
:10042400D3EF9433EE64809484500BAB0FAA10A9DD
:10043400117403020521C3EF9483EE6480947F401A
:1004440016D3EF947DEE64809480500BAB0FAA100A
:10045400A9117404020521C3EF94BCEE6480948C4A
:100464004016D3EF94B6EE6480948D500BAB0FAA74
:1004740010A9117405020521C3EF949BEE648094C6
:10048400854016D3EF9495EE64809486500BAB0FA1
:10049400AA10A9117406020521C3EF94B3EE648077
:1004A400948B4015D3EF94ADEE6480948C500AABDA
:1004B4000FAA10A91174078064C3EF9421EE64801D
:1004C40094874015D3EF941BEE64809488500AAB54
:1004D4000FAA10A91174088044C3EF94AFEE64808E
:1004E400948A4015D3EF94A9EE6480948B500AABA0
:1004F4000FAA10A91174098024C3EF94CFEE64806D
:1005040094835003020652D3EF94C9EE648094841A
:100514004003020652AB0FAA10A911740A12013F3C
:10052400AB0FE5112402F9E43510FA120265EF2449
:100534000AFFE43EFEE43DFDE43CFC1202B5AB0FD1
:10054400AA10A911900001120112FF1200F9FE6F06
:100554007044EE7003020652900002120285E47B9E
:10056400B87A0BF9F8D31202414003020652AB0FDA
:10057400AA10A91190000612011260030206521279
:1005840000F9FF7D031206EDAB0FAA10A91190002C
:10059400067401020151AB0FAA10A9111200F9143B
:1005A40024F6400302062A240B6003020639900055
:1005B40001120112FF7D021206EDAB0FAA10A91160
:1005C400900002120285E47BF47A01F9F8C3120266
:1005D400414011AB0FAA10A911900001120112FFA2
:1005E400E4FD8030AB0FAA10A9119000021202851D
:1005F400E47BB87A0BF9F8D3120241501AAB0FAA74
:1006040010A911900006120112700C900001120141
:1006140012FF7D031206EDAB0FAA10A9119000067C
:10062400E4120151800FAB0FAA10A9111200F9FFB7
:100634007D011206EDAB0FAA10A91190000212025F
:0E064400CF000000001200F9900001120151D9
:010652002285
:10078300E4F50FF510120B81EE3395E0FDFCE5283F
:100793002FF528E5273EF527E5263DF526E5253CFB
:1007A300F525E5242401F524E43523F523E4352256
:1007B300F522E43521F521E47FF47E01FDFCAB2431
:1007C300AA23A922A821C312024170347BF47A011F
:1007D300F9F8AF28AE27AD26AC251201AF8E0F8FE7
:1007E300107B007A00790F7517027F02120804E468
:1007F300F524F523F522F521F528F527F526F5252A
:0108030022D2
:100B4A0078087C007D007BFF7A0C79177E007F078E
:100B5A001200D37F007EC27D017C00120B117B0044
:100B6A007A0079081203AE1207837F0A7E007D009D
:070B7A007C00120A7B80E7FA
:100B110053B1BF53B2BF53B17F53B27F75985043A6
:100B21008920438780438E1053C4DFAB07AA06A9EF
:100B310005A8047F407E427D0F7C001201AFEF04C7
:090B4100F404F58DD28ED2992244
:10087B008F1D8E1C8D1B8C1A53B1BF53B2BF53B13E
:10088B007F53B27F75985043878053C4F843C4207D
:10089B00AB1DAA1CA91BA81A7F407E427D0F7C00B2
:1008AB001201AFC374FF9FFF74FF9EFEE49DFDE436
:1008BB009CFC78081202528FC6AB1DAA1CA91BA860
:1008CB001A7F407E427D0F7C001201AFC374FF9FE5
:0908DB00FF8FC543C408D2992225
:070BF7003098FDAF99C29890
:010BFE0022D4
:080BFF00C2998F993099FD2283
:1008E4008F2C8E2B8D2A8C2953B1FB53B2FB53B31F
:1008F400BF53B4BF75F85075C40853C4DFAB2CAAFA
:100904002BA92AA8297F407E427D0F7C001201AFCB
:10091400C374FF9FFF74FF9EFEE49DFDE49CFC787E
:10092400081202528FC6AB2CAA2BA92AA8297F40F1
:100934007E427D0F7C001201AFC374FF9FFF8FC501
:0409440043C408227E
:070C070030F8FDAF9AC2F8BE
:010C0E0022C3
:080C0F00C2F98F9A30F9FD22B1
:100A30008F308E2F8D2E8C2D538EF7438901D28CC3
:100A4000E4FFFEFDFCAB30AA2FA92EA82DC3120295
:100A5000416025758A7E758CFF308DFDC28DE53035
:100A600024FFF530E52F34FFF52FE52E34FFF52E6A
:0B0A7000E52D34FFF52D80C8C28C225C
:100A7B008F128E118D108C0F538EF7438901D28CF0
:100A8B00E4FFFEFDFCAB12AA11A910A80FC31202C2
:100A9B00416025758ACA758CFA308DFDC28DE512C1
:100AAB0024FFF512E51134FFF511E51034FFF510B5
:0B0ABB00E50F34FFF50F80C8C28C224D
:100AC6008F348E338D328C31538EEF438910D28E14
:100AD600E4FFFEFDFCAB34AA33A932A831C31202EF
:100AE600416025758BEA758DCB308FFDC28FE5345D
:100AF60024FFF534E53334FFF533E53234FFF532C0
:0B0B0600E53134FFF53180C8C28E22BB
:100948008F388E378D368C3553C9BF53C9DF43C9AD
:1009580010D2CAE4FFFEFDFCAB38AA37A936A83589
:10096800C3120241602575CC3075CDF830CFFDC279
:10097800CFE53824FFF538E53734FFF537E5363469
:0E098800FFF536E53534FFF53580C8C2CA22CA
:100996008F3C8E3B8D3A8C3975C40743C408E4FFFF
:1009A600FEFDFCAB3CAA3BA93AA839C31202416042
:1009B6002875C52C75C6CFE5C430E4FB53C4EFE5F6
:1009C6003C24FFF53CE53B34FFF53BE53A34FFF5C7
:0D09D6003AE53934FFF53980C553C4F722E6
:1009E3008F408E3F8D3E8C3D75C40743C408E4FFA2
:1009F300FEFDFCAB40AA3FA93EA83DC312024160E5
:100A03002875C5D875C6FFE5C430E4FB53C4EFE5CC
:100A13004024FFF540E53F34FFF53FE53E34FFF565
:0D0A23003EE53D34FFF53D80C553C4F7228C
:03000000020653A2
:10065300787FE4F6D8FD9000007FFF7E03E4F0A3EB
:0A066300DFFCDEFA7581400206A8F4
:10066D00020B4AE493A3F8E493A34003F68001F24E
:10067D0008DFF48029E493A3F85407240CC8C3338E
:10068D00C4540F4420C8834004F456800146F6DF5D
:10069D00E4800B0102040810204080900BEAE47EF8
:1006AD00019360BCA3FF543F30E509541FFEE49352
:1006BD00A360010ECF54C025E060A840B8E493A319
:1006CD00FAE493A3F8E493A3C8C582C8CAC583CA44
:1006DD00F0A3C8C582C8CAC583CADFE9DEE780BEFC
:010BF60000FE
:10000300E709F608DFFA8046E709F208DFFA803EDF
:1000130088828C83E709F0A3DFFA8032E309F608CC
:10002300DFFA8078E309F208DFFA807088828C8334
:10003300E309F0A3DFFA806489828A83E0A3F608E8
:10004300DFFA805889828A83E0A3F208DFFA804CC2
:1000530080D280FA80C680D4806980F28033801099
:1000630080A680EA809A80A880DA80E280CA803302
:1000730089828A83ECFAE493A3C8C582C8CCC5837A
:10008300CCF0A3C8C582C8CCC583CCDFE9DEE7804A
:100093000D89828A83E493A3F608DFF9ECFAA9F0C9
:1000A300EDFB2289828A83ECFAE0A3C8C582C8CC1F
:1000B300C583CCF0A3C8C582C8CCC583CCDFEADE38
:1000C300E880DB89828A83E493A3F208DFF980CC9A
:1000D30088F0EF60010E4E60C388F0ED2402B40493
:1000E3000050B9F582EB2402B4040050AF2323453A
:0600F3008223900053730C
:1000F900BB010689828A83E0225002E722BBFE0205
:09010900E32289828A83E4932237
:10011200BB010CE58229F582E5833AF583E02250A2
:1001220006E92582F8E622BBFE06E92582F8E222EC
:0D013200E58229F582E5833AF583E4932206
:10013F00BB010689828A83F0225002F722BBFE019F
:02014F00F32299
:10015100F8BB010DE58229F582E5833AF583E8F0E4
:10016100225006E92582C8F622BBFE05E92582C890
:02017100F22278
:1001730075F008758200EF2FFFEE33FECD33CDCC43
:1001830033CCC58233C5829BED9AEC99E5829840C6
:100193000CF582EE9BFEED9AFDEC99FC0FD5F0D6A3
:1001A300E4CEFBE4CDFAE4CCF9A88222B800C1B9CD
:1001B3000059BA002DEC8BF084CFCECDFCE5F0CB0B
:1001C300F97818EF2FFFEE33FEED33FDEC33FCEB44
:1001D30033FB10D703994004EB99FB0FD8E5E4F9FF
:1001E300FA227818EF2FFFEE33FEED33FDEC33FCEC
:1001F300C933C910D7059BE99A4007EC9BFCE99AE0
:10020300F90FD8E0E4C9FAE4CCFB2275F010EF2F24
:10021300FFEE33FEED33FDCC33CCC833C810D70724
:100223009BEC9AE899400AED9BFDEC9AFCE899F85F
:0E0233000FD5F0DAE4CDFBE4CCFAE4C8F922F2
:10024100EB9FF5F0EA9E42F0E99D42F0E89C45F013
:01025100228A
:10025200E8600FECC313FCED13FDEE13FEEF13FF8A
:03026200D8F122AE
:10026500BB010789828A830202FF5005E9F8020271
:10027500F3BBFE05E9F802030B89828A83020317A3
:10028500BB010DE58229F582E5833AF5830202FF7C
:100295005007E92582F80202F3BBFE07E92582F83B
:1002A50002030BE58229F582E5833AF583020317FC
:1002B500BB010789828A830203335005E9F80203EB
:0A02C50027BBFE05E9F802033F2203
:1002CF00BB010DE58229F582E5833AF583020364CC
:1002DF005007E92582F802034BBBFE07E92582F898
:0402EF00020395224F
:0C02F300E6FC08E6FD08E6FE08E6FF2237
:0C02FF00E0FCA3E0FDA3E0FEA3E0FF2272
:0C030B00E2FC08E2FD08E2FE08E2FF222E
:10031700E493FC740193FD740293FE740393FF222C
:0C032700ECF608EDF608EEF608EFF62202
:0C033300ECF0A3EDF0A3EEF0A3EFF0223D
:0C033F00ECF208EDF208EEF208EFF222FA
:10034B00D083D082E493F608740193F60874029379
:09035B00F608740393F6740473B0
:10036400A8828583F0D083D08212037B12037B1290
:10037400037B12037BE473E493A3C583C5F0C583B5
:10038400C8C582C8F0A3C583C5F0C583C8C582C8E3
:010394002246
:10039500D083D082E493F208740193F20874029337
:0903A500F208740393F27404736E
:00000001FF
