:03003B000201308F
:10013000C0E0C0F0C083C082C0D075D000C000C095
:1001400001C002C003C004C005C006C007E5EC64DE
:10015000807065C2927F0AFEFDFC120436D2927F47
:100160000A7E007D007C00120436C2927F0A7E0067
:100170007D007C00120436D2927F0A7E007D007CD6
:1001800000120436C2927F0A7E007D007C001204B9
:1001900036D2927F0A7E007D007C00120436C29225
:1001A0007F0A7E007D007C00120436D2927F0A7E98
:1001B000007D007C00120436D007D006D005D004A4
:1001C000D003D002D001D000D0D0D082D083D0F0E4
:0301D000D0E0324A
:10048100E4F5B1F5B1F5B3F5B4F5ACF5ADFF7EC268
:100491007D01FC1201D3438E02C2927F2C7E017D2D
:1004A100007C001203EBD2927F2C7E017D007C0048
:0D04B1001203EB7F3512002580DF80FE2254
:1003A0008F138E128D118C10538EF7438901D28CCE
:1003B000E4FFFEFDFCAB13AA12A911A810C31201A1
:1003C0000C6025758A7E758CFF308DFDC28D74FFA3
:1003D0002513F513E51234FFF512E51134FFF5117D
:0B03E000E51034FFF51080C8C28C222D
:1003EB008F0F8E0E8D0D8C0C538EF7438901D28C93
:1003FB00E4FFFEFDFCAB0FAA0EA90DA80CC3120166
:10040B000C6025758ACA758CFA308DFDC28D74FF10
:10041B00250FF50FE50E34FFF50EE50D34FFF50D49
:0B042B00E50C34FFF50C80C8C28C22E9
:100436008F0B8E0A8D098C08538EEF438910D28E4E
:10044600E4FFFEFDFCAB0BAA0AA909A808C312012A
:100456000C6025758BEA758DCB308FFDC28F74FFCE
:10046600250BF50BE50A34FFF50AE50934FFF50916
:0B047600E50834FFF50880C8C28E22A4
:1002B8008F178E168D158C1453C9BF53C9DF43C9C8
:1002C80010D2CAE4FFFEFDFCAB17AA16A915A814A4
:1002D800C312010C602575CC3075CDF830CFFDC246
:1002E800CF74FF2517F517E51634FFF516E5153415
:0E02F800FFF515E51434FFF51480C8C2CA22C4
:100306008F1B8E1A8D198C1875C40743C408E4FF19
:10031600FEFDFCAB1BAA1AA919A818C312010C6092
:100326002875C52C75C6CFE5C430E4FB53C4EF74FD
:10033600FF251BF51BE51A34FFF51AE51934FFF501
:0D03460019E51834FFF51880C553C4F722DF
:100353008F1F8E1E8D1D8C1C75C40743C408E4FFBC
:10036300FEFDFCAB1FAA1EA91DA81CC312010C6035
:100373002875C5D875C6FFE5C430E4FB53C4EF74D4
:10038300FF251FF51FE51E34FFF51EE51D34FFF5A0
:0D0393001DE51C34FFF51C80C553C4F72286
:1004BE0053B1BF53B2BF53B17F53B27F7598504300
:1004CE008920438780438E1053C4DFAB07AA06A949
:1004DE0005A8047F407E427D0F7C0012007AEF0457
:0904EE00F404F58DD28ED299229E
:1001D3008F0F8E0E8D0D8C0C53B1BF53B2BF53B125
:1001E3007F53B27F75985043878053C4F843C4202C
:1001F300AB0FAA0EA90DA80C7F407E427D0F7C0099
:1002030012007AC374FF9FFF74FF9EFEE49DFDE41A
:100213009CFC780812011D8FC6AB0FAA0EA90DA86E
:100223000C7F407E427D0F7C0012007AC374FF9FD7
:10023300FF74FF9EFEE49DFDE49CFCEFE48FC54349
:05024300C408D299225D
:07001D003098FDAF99C29875
:0100240022B9
:08002500C2998F993099FD2268
:100248008F248E238D228C2153B1FB53B2FB53B3E1
:10025800BF53B4BF75F85075C40853C4DFAB24AAA4
:1002680023A922A8217F407E427D0F7C0012007ABC
:10027800C374FF9FFF74FF9EFEE49DFDE49CFC7821
:100288000812011D8FC6AB24AA23A922A8217F40EA
:100298007E427D0F7C0012007AC374FF9FFF74FFBB
:1002A8009EFEE49DFDE49CFCEFE48FC543C4082258
:07002D0030F8FDAF9AC2F8A4
:0100340022A9
:0804F700C2F98F9A30F9FD22D1
:03000000020003F8
:10000300787FE4F6D8FD9000007FFF7E03E4F0A341
:0A001300DFFCDEFA7581240204818F
:10003E0075F008758200EF2FFFEE33FECD33CDCC79
:10004E0033CCC58233C5829BED9AEC99E5829840FC
:10005E000CF582EE9BFEED9AFDEC99FC0FD5F0D6D9
:10006E00E4CEFBE4CDFAE4CCF9A88222B800C1B903
:10007E000059BA002DEC8BF084CFCECDFCE5F0CB41
:10008E00F97818EF2FFFEE33FEED33FDEC33FCEB7A
:10009E0033FB10D703994004EB99FB0FD8E5E4F935
:1000AE00FA227818EF2FFFEE33FEED33FDEC33FC22
:1000BE00C933C910D7059BE99A4007EC9BFCE99A16
:1000CE00F90FD8E0E4C9FAE4CCFB2275F010EF2F5B
:1000DE00FFEE33FEED33FDCC33CCC833C810D7075B
:1000EE009BEC9AE899400AED9BFDEC9AFCE899F896
:0E00FE000FD5F0DAE4CDFBE4CCFAE4C8F92229
:10010C00EB9FF5F0EA9E42F0E99D42F0E89C45F049
:01011C0022C0
:10011D00E8600FECC313FCED13FDEE13FEEF13FFC0
:03012D00D8F122E4
:00000001FF
